:020000040000fa
:080000000002040000000000f2
:020000040000fa
:10040000cf9020000e7f24000e0188000000000025
:100410000c000700007b20000100200011000700f5
:10042000000020000000e000020032000000020096
:100430000000000074050200000000000040da0027
:100440000000fe004440a900000020000000e00081
:100450000300320000002000a00188004440a800f2
:100460000000060091018800800078000000eb0089
:1004700015003700e280400032a0b4009101ba00bc
:10048000e280400032a0b4009102ba00e280400055
:1004900032a0b4000002eb00472bde00f507b200eb
:1004a000602ce10004003a000059eb008301e900f0
:1004b000fdff3e00040037006128e100010032002a
:1004c0000082eb00040007001101ba000200e00006
:1004d000e8ff3a00000006003159ba008301e90044
:1004e0000c0032002159ba008301e90008003200f3
:1004f0000400e00003003a00e280400032a0b400b3
:10050000f5ff370011d9ba008301e900faff3a007c
:100510008100e800e180400032a0b4000000060045
:080520000040da000000fe00bb
:020000040000fa
:1000080090020000900200009002000090020000a0
:100018009002000090020000900200009002000090
:10002800900200009002000090020000c60200004a
:100038009002000090020000900200009002000070
:100048009002000090020000900200009002000060
:10005800940200009002000090020000900200004c
:100068009002000090020000900200009002000040
:100078009002000090020000900200009002000030
:100088009002000090020000900200009002000020
:100098009002000090020000900200009002000010
:1000a8009002000090020000900200009002000000
:1000b80090020000900200009002000090020000f0
:1000c80090020000900200009002000090020000e0
:1000d80090020000900200009002000090020000d0
:1000e80090020000900200009002000090020000c0
:1000f80090020000900200009002000090020000b0
:10010800900200009002000090020000900200009f
:10011800900200009002000090020000900200008f
:10012800900200009002000090020000900200007f
:10013800900200009002000090020000900200006f
:10014800900200009002000090020000900200005f
:10015800900200009002000090020000900200004f
:10016800900200009002000090020000900200003f
:10017800900200009002000090020000900200002f
:10018800900200009002000090020000900200001f
:10019800900200009002000090020000900200000f
:1001a80090020000900200009002000090020000ff
:1001b80090020000900200009002000090020000ef
:1001c80090020000900200009002000090020000df
:1001d80090020000900200009002000090020000cf
:1001e80090020000900200009002000090020000bf
:0801f8009002000090020000db
:020000040000fa
:10020800900200009002000090020000900200009e
:10021800900200009002000090020000900200008e
:10022800900200009002000090020000c602000048
:10023800900200009002000090020000900200006e
:10024800900200009002000090020000900200005e
:10025800940200009002000090020000900200004a
:10026800900200009002000090020000900200003e
:10027800900200009002000090020000900200002e
:10028800900200009002000090020000900200001e
:10029800900200009002000090020000900200000e
:1002a80090020000900200009002000090020000fe
:1002b80090020000900200009002000090020000ee
:1002c80090020000900200009002000090020000de
:1002d80090020000900200009002000090020000ce
:1002e80090020000900200009002000090020000be
:1002f80090020000900200009002000090020000ae
:10030800900200009002000090020000900200009d
:10031800900200009002000090020000900200008d
:10032800900200009002000090020000900200007d
:10033800900200009002000090020000900200006d
:10034800900200009002000090020000900200005d
:10035800900200009002000090020000900200004d
:10036800900200009002000090020000900200003d
:10037800900200009002000090020000900200002d
:10038800900200009002000090020000900200001d
:10039800900200009002000090020000900200000d
:1003a80090020000900200009002000090020000fd
:1003b80090020000900200009002000090020000ed
:1003c80090020000900200009002000090020000dd
:1003d80090020000900200009002000090020000cd
:1003e80090020000900200009002000090020000bd
:0803f8009002000090020000d9
:020000040000fa
:10052800809fbe00821f78000000fa009190200092
:100538009140780008c9bf0080cf50000c003200fd
:1005480092902000124178008280fb008080200079
:1005580000804000104078000080fb0020118800d7
:100568000240e80009e9b7000000eb0050488800a5
:100578008580a9000080fa004f0178004f00be0076
:1005880000400600801f78000000fa000000eb0021
:1005980000088800104080000000e00007003400d8
:1005a800104080000000e9001040880010408000e2
:1005b8000000e00001003c00cca2a900204080001f
:1005c8000000e00007003400204080000000e9003f
:1005d80020408800204080000000e00001003c002e
:1005e800c402a800304080000000e000070034008a
:1005f800304080000000e900304088003040800032
:100608000000e00001003c00c402a9008460a900c9
:100618000080fa004f007800004006000000fa0051
:10062800313a800000e02f00008060006102200065
:1006380001007000303a8800417420009140780031
:1006480000ceb30000c0600044e7b70044c7bf0055
:10065800f043b20044e7b700f003200060198800b7
:100668004116800000e02f000080700040168800ce
:10067800c082a800c022a8004103800090802f00fb
:1006880000807000400388006a00a8006aa0a800e3
:10069800c402a900cca2a900c002a900c8a2a9004e
:1006a800cd02a900c902a900616a20009140780022
:1006b80000ceb30000c060007040b300a6e6b700eb
:1006c800616c20009140780000ceb30000c060004b
:1006d8005040b300c6e6b700216c20009140780076
:1006e80000ceb30000c060002041b300c2e6b700ee
:1006f800316c20009140780000ceb30000c060004b
:100708003041b300c3e6b700416c20009140780047
:1007180000ceb30000c060004041b300c4e6b7009b
:10072800416a20009140780000ceb30000c060000c
:100738000004a000a4e6b700016c200091407800f6
:1007480000ceb30000c060003040b300c0e6b70080
:100758000080fa00000006000000fa001021a9003d
:10076800011120009140780000c3b30000c0700060
:1007780010e1b70011e1a800f00f20006008880020
:100788000000eb00200c88000000eb00100c880033
:100798000000eb00000c88008461a90041182000cb
:1007a8009140780080cfb30000c060006040b30083
:1007b80084e1b7000000eb00500c88000000eb005b
:1007c800400c88000000eb00300c88008a61a9000a
:1007d800a11820009140780080cfb30000c06000cd
:1007e8006040b3008ae1b7000000eb00800c88008d
:1007f8000000eb00700c88000000eb00600c880023
:100808009061a900011920009140780080cfb300c1
:1008180000c060006040b30090e1b7000080fa00bb
:10082800000006000200fa00000f78001e007800a1
:10083800000c88000080fa00000006000200fa00a0
:10084800000f78001e007800300c88000080fa0045
:10085800000006000200fa00000f78001e00780071
:10086800600c88000080fa00000006000200fa0010
:10087800000f78000000eb00000888000421a900a0
:100888004110200091407800f0ccb30000c0600017
:1008980001c2b3000140700004e1b70005e1a800ff
:1008a8001e007800100888008460a9009460a800e1
:1008b8000080fa00000006000400fa001007980003
:1008c8000000eb00000f7800200037008290200025
:1008d800124178008281fb001e00780080007800b9
:1008e8001e00900000804000104078008040780092
:1008f8008080200000804100014878000240e80024
:1009080008e9b7001e0fe80008c9bf000080fb0017
:100918000000e80002102000110009000200d800c1
:100928008000fd008000780009c9bf000080fb003e
:10093800808f500003003a001000200050488800c3
:10094800020037000000eb00504888001e007800c5
:10095800800078001e009000008040001040780061
:100968000004e00003003200504880000000e0006e
:10097800d6ff320023c2bf00624060000004e000de
:100988000a003a0092902000124178008280fb0011
:100998008080200000804000104078000080fb002c
:1009a800201188000240e80009e9b7000080fa0039
:1009b800000006000000fa005116800000e02f0039
:1009c800008060004700de0000408800c2c2bf000f
:1009d8000080fb004400de00614060000080fb00f6
:1009e8000000400080007800004080000080700017
:1009f80000408800c2c2bf000080fb000000d10098
:100a0800614060008080fb00004080000080700032
:100a180000408800004080008080ea00f01f20002d
:100a28000080600000408800004080000000e8006e
:100a3800004088000080fa00000006000000fa006c
:100a480033c2bf00614060000004e000fcff3200d8
:100a5800cd02a80090012000c01188000040eb00e2
:100a6800d800070033c2bf00614060000004e00006
:100a7800fcff320090002000c01188000080fa00be
:100a8800000006000400fa0010002000100798007b
:100a98000b003700d5000700004f780001408000a8
:100aa8001e009000810f500002003a001e4078009e
:100ab800104798001e0090000000e80010079800fa
:100ac8009e00900000202000808f5000f1ff36002b
:100ad8001e4090000080fb000080fa000000060025
:100ae8001e04fa00ea0047000040eb008048780046
:100af800ea0047000040eb0090409800ea004700f9
:100b08000040eb00a04098000000eb002007980090
:100b18006000b800008fbe00c0fe07000eff07008f
:100b280010082000c1000700900020008600070080
:100b3800102720004dff0700cd02a900c402a8001d
:100b4800401f2000fa000700c402a9000000370077
:100b580098ff0700cd02a90032c2bf0061406000c3
:100b68000004e000faff320032c2bf0064406000b7
:100b78000004e0002d0032009c0007000004e000a3
:100b8800f3ff3a0099000700104f98001e489000a4
:100b98000004e0000b003a00100020002007980035
:100ba8001000200030079800803e20003040880068
:100bb800204080000000e000e5ff3c00c402a800df
:100bc800e3ff37001e489000f04f4000e0ff3a0076
:100bd80010002000010020001e0f40005e97480012
:100be800a8ff0700004f98000e4890000004e0009e
:100bf80009003200cd02a80010002000c400070040
:100c08008eff0700a00f200010408800cca2a8008b
:100c1800cd02a900ceff3700cd02a900e0052000d3
:100c2800bb000700cd02a900c9ff37002e009000c5
:100c38000000e000420032006c000700104f9800ee
:100c4800014080003e009000810f500032003a00c1
:100c58006a004700904078001e48900080cf5000fe
:100c680009003200a00f200020408800c402a9001b
:100c78006a0047009e489000014878001e4890008e
:100c88000080fb00f3fe070058000700104f980093
:100c98006a004700904090001e48900080cf5000a6
:100ca80009003200a00f200020408800c402a900db
:100cb8006a0047009e489000114098001e48900026
:100cc8000080fb00d7fe070048000700104f98007f
:100cd8006a004700a04090001e48900080cf500056
:100ce80009003200a00f200020408800c402a9009b
:100cf8006a0047009e489000214098001e489000d6
:100d08000080fb00cdfe07000000eb0020079800e4
:100d18000000eb00300798003e0090000000e8005b
:100d280030079800be00900000202000808f5000ff
:100d380087ff36000000eb003007980084ff37007b
:100d48002a00070082ff37000200fa00000f78002f
:100d58001e007800c011880010002800801188004b
:100d680000402000901188000080fa000000060072
:100d78000400fa00100798000000eb00000f78004c
:100d8800070037001e007800800078001e009000e1
:100d980000804000104078001e0fe800090007009e
:100da8001e007800800078001e009000008040003f
:100db800104078000004e000f2ff3a000080fa00da
:100dc800000006000200fa00004f780033c2bf009e
:100dd800624060000004e000fcff3a001e00fb00d7
:100de800a01188000080fa00000006000200fa0046
:100df80032c2bf00614060000004e000fcff320026
:100e0800b0118000004f780032c2bf00624060001d
:100e18000004e000010032003222a9001e407800e0
:100e28000080fb000080fa00000006000200fa00c3
:100e3800000f78001e00780040118800000028008c
:100e48000011880000402000101188008580a9004a
:100e58009580a8000080fa00000006000400fa004f
:100e6800100798000000eb00000f7800070037001b
:100e78001e007800800078001e009000008040006e
:100e8800104078001e0fe800090007001e007800d7
:100e9800800078001e00900000804000104078001c
:100ea8000004e000f2ff3a000080fa0000000600ab
:100eb8000200fa00004f780023c2bf0062406000c1
:100ec8000004e000fcff3a001e00fb00201188002f
:100ed8000080fa00000006000000fa0022c2bf00ed
:100ee800624060000004e000010032002222a900f4
:100ef80022c2bf00614060000004e000fcff320035
:100f0800301180000000fb000080fa00000006009d
:100f18001d000900000000000000e9000300320085
:100f28002200090000000000fbff37000000060057
:100f380080007800803e20008c070200000000003e
:100f48008100e900fbff3a00000006007c0609006a
:080f580000000000000006008b
:020000040000fa
:100f6000080900000400000002000000000000006a
:100f70000000000000080000080100000000000060
:040f8000000000006d
:00000001FF
